{
  "contractName": "SmartSensor",
  "abi": [
    {
      "constant": false,
      "inputs": [
        {
          "name": "sensorId",
          "type": "uint256"
        }
      ],
      "name": "getData",
      "outputs": [
        {
          "name": "",
          "type": "string"
        }
      ],
      "payable": false,
      "stateMutability": "nonpayable",
      "type": "function"
    },
    {
      "constant": false,
      "inputs": [
        {
          "name": "myid",
          "type": "bytes32"
        },
        {
          "name": "result",
          "type": "string"
        }
      ],
      "name": "__callback",
      "outputs": [],
      "payable": false,
      "stateMutability": "nonpayable",
      "type": "function"
    },
    {
      "constant": false,
      "inputs": [
        {
          "name": "myid",
          "type": "bytes32"
        },
        {
          "name": "result",
          "type": "string"
        },
        {
          "name": "proof",
          "type": "bytes"
        }
      ],
      "name": "__callback",
      "outputs": [],
      "payable": false,
      "stateMutability": "nonpayable",
      "type": "function"
    },
    {
      "constant": false,
      "inputs": [],
      "name": "update",
      "outputs": [],
      "payable": true,
      "stateMutability": "payable",
      "type": "function"
    },
    {
      "constant": true,
      "inputs": [],
      "name": "reading",
      "outputs": [
        {
          "name": "",
          "type": "string"
        }
      ],
      "payable": false,
      "stateMutability": "view",
      "type": "function"
    },
    {
      "inputs": [],
      "payable": false,
      "stateMutability": "nonpayable",
      "type": "constructor"
    }
  ],
  "bytecode": "0x606060405234156200001057600080fd5b6200002e6200003464010000000002620003d8176401000000009004565b62000cac565b620000be6040805190810160405280600c81526020017f576f6c6672616d416c70686100000000000000000000000000000000000000008152506040805190810160405280601881526020017f74656d706572617475726520696e20726f636865737465720000000000000000815250620000c16401000000000262000803176401000000009004565b50565b60008060008060009054906101000a900473ffffffffffffffffffffffffffffffffffffffff1673ffffffffffffffffffffffffffffffffffffffff1614806200014a57506000620001486000809054906101000a900473ffffffffffffffffffffffffffffffffffffffff16620006456401000000000262000d45176401000000009004565b145b156200017257620001706000620006506401000000000262000d50176401000000009004565b505b6000809054906101000a900473ffffffffffffffffffffffffffffffffffffffff1673ffffffffffffffffffffffffffffffffffffffff166338cc48316000604051602001526040518163ffffffff167c0100000000000000000000000000000000000000000000000000000000028152600401602060405180830381600087803b15156200020057600080fd5b6102c65a03f115156200021257600080fd5b5050506040518051905073ffffffffffffffffffffffffffffffffffffffff16600160009054906101000a900473ffffffffffffffffffffffffffffffffffffffff1673ffffffffffffffffffffffffffffffffffffffff161415156200035e576000809054906101000a900473ffffffffffffffffffffffffffffffffffffffff1673ffffffffffffffffffffffffffffffffffffffff166338cc48316000604051602001526040518163ffffffff167c0100000000000000000000000000000000000000000000000000000000028152600401602060405180830381600087803b15156200030157600080fd5b6102c65a03f115156200031357600080fd5b50505060405180519050600160006101000a81548173ffffffffffffffffffffffffffffffffffffffff021916908373ffffffffffffffffffffffffffffffffffffffff1602179055505b600160009054906101000a900473ffffffffffffffffffffffffffffffffffffffff1673ffffffffffffffffffffffffffffffffffffffff1663524f3889856000604051602001526040518263ffffffff167c01000000000000000000000000000000000000000000000000000000000281526004018080602001828103825283818151815260200191508051906020019080838360005b8381101562000413578082015181840152602081019050620003f6565b50505050905090810190601f168015620004415780820380516001836020036101000a031916815260200191505b5092505050602060405180830381600087803b15156200046057600080fd5b6102c65a03f115156200047257600080fd5b50505060405180519050905062030d403a02670de0b6b3a764000001811115620004a357600060010291506200063e565b600160009054906101000a900473ffffffffffffffffffffffffffffffffffffffff1673ffffffffffffffffffffffffffffffffffffffff1663adf59f9982600087876000604051602001526040518563ffffffff167c0100000000000000000000000000000000000000000000000000000000028152600401808481526020018060200180602001838103835285818151815260200191508051906020019080838360005b838110156200056657808201518184015260208101905062000549565b50505050905090810190601f168015620005945780820380516001836020036101000a031916815260200191505b50838103825284818151815260200191508051906020019080838360005b83811015620005cf578082015181840152602081019050620005b2565b50505050905090810190601f168015620005fd5780820380516001836020036101000a031916815260200191505b50955050505050506020604051808303818588803b15156200061e57600080fd5b6125ee5a03f115156200063057600080fd5b505050506040518051905091505b5092915050565b6000813b9050919050565b60008062000686731d3b2638a7cc9f2cb3d298a3da7a90b67e5506ed620006456401000000000262000d45176401000000009004565b11156200073f57731d3b2638a7cc9f2cb3d298a3da7a90b67e5506ed6000806101000a81548173ffffffffffffffffffffffffffffffffffffffff021916908373ffffffffffffffffffffffffffffffffffffffff160217905550620007356040805190810160405280600b81526020017f6574685f6d61696e6e657400000000000000000000000000000000000000000081525062000be164010000000002620011e1176401000000009004565b6001905062000bdc565b60006200077473c03a2615d5efaf5f49f60b7bb6583eaec212fdf1620006456401000000000262000d45176401000000009004565b11156200082d5773c03a2615d5efaf5f49f60b7bb6583eaec212fdf16000806101000a81548173ffffffffffffffffffffffffffffffffffffffff021916908373ffffffffffffffffffffffffffffffffffffffff160217905550620008236040805190810160405280600c81526020017f6574685f726f707374656e33000000000000000000000000000000000000000081525062000be164010000000002620011e1176401000000009004565b6001905062000bdc565b60006200086273b7a07bcf2ba2f2703b24c0691b5278999c59ac7e620006456401000000000262000d45176401000000009004565b11156200091b5773b7a07bcf2ba2f2703b24c0691b5278999c59ac7e6000806101000a81548173ffffffffffffffffffffffffffffffffffffffff021916908373ffffffffffffffffffffffffffffffffffffffff160217905550620009116040805190810160405280600981526020017f6574685f6b6f76616e000000000000000000000000000000000000000000000081525062000be164010000000002620011e1176401000000009004565b6001905062000bdc565b60006200095073146500cfd35b22e4a392fe0adc06de1a1368ed48620006456401000000000262000d45176401000000009004565b111562000a095773146500cfd35b22e4a392fe0adc06de1a1368ed486000806101000a81548173ffffffffffffffffffffffffffffffffffffffff021916908373ffffffffffffffffffffffffffffffffffffffff160217905550620009ff6040805190810160405280600b81526020017f6574685f72696e6b65627900000000000000000000000000000000000000000081525062000be164010000000002620011e1176401000000009004565b6001905062000bdc565b600062000a3e736f485c8bf6fc43ea212e93bbf8ce046c7f1cb475620006456401000000000262000d45176401000000009004565b111562000aa357736f485c8bf6fc43ea212e93bbf8ce046c7f1cb4756000806101000a81548173ffffffffffffffffffffffffffffffffffffffff021916908373ffffffffffffffffffffffffffffffffffffffff1602179055506001905062000bdc565b600062000ad87320e12a1f859b3feae5fb2a0a32c18f5a65555bbf620006456401000000000262000d45176401000000009004565b111562000b3d577320e12a1f859b3feae5fb2a0a32c18f5a65555bbf6000806101000a81548173ffffffffffffffffffffffffffffffffffffffff021916908373ffffffffffffffffffffffffffffffffffffffff1602179055506001905062000bdc565b600062000b727351efaf4c8b3c9afbd5ab9f4bbc82784ab6ef8faa620006456401000000000262000d45176401000000009004565b111562000bd7577351efaf4c8b3c9afbd5ab9f4bbc82784ab6ef8faa6000806101000a81548173ffffffffffffffffffffffffffffffffffffffff021916908373ffffffffffffffffffffffffffffffffffffffff1602179055506001905062000bdc565b600090505b919050565b806002908051906020019062000bf992919062000bfd565b5050565b828054600181600116156101000203166002900490600052602060002090601f016020900481019282601f1062000c4057805160ff191683800117855562000c71565b8280016001018555821562000c71579182015b8281111562000c7057825182559160200191906001019062000c53565b5b50905062000c80919062000c84565b5090565b62000ca991905b8082111562000ca557600081600090555060010162000c8b565b5090565b90565b6112e08062000cbc6000396000f30060606040526004361061006d576000357c0100000000000000000000000000000000000000000000000000000000900463ffffffff1680630178fe3f1461007257806327dc297e1461010e57806338bbfa5014610178578063a2e6204514610225578063fffd52c61461022f575b600080fd5b341561007d57600080fd5b61009360048080359060200190919050506102bd565b6040518080602001828103825283818151815260200191508051906020019080838360005b838110156100d35780820151818401526020810190506100b8565b50505050905090810190601f1680156101005780820380516001836020036101000a031916815260200191505b509250505060405180910390f35b341561011957600080fd5b61017660048080356000191690602001909190803590602001908201803590602001908080601f01602080910402602001604051908101604052809392919081815260200183838082843782019150505050505091905050610377565b005b341561018357600080fd5b61022360048080356000191690602001909190803590602001908201803590602001908080601f0160208091040260200160405190810160405280939291908181526020018383808284378201915050505050509190803590602001908201803590602001908080601f016020809104026020016040519081016040528093929190818152602001838380828437820191505050505050919050506103d3565b005b61022d6103d8565b005b341561023a57600080fd5b61024261044f565b6040518080602001828103825283818151815260200191508051906020019080838360005b83811015610282578082015181840152602081019050610267565b50505050905090810190601f1680156102af5780820380516001836020036101000a031916815260200191505b509250505060405180910390f35b6102c56111fb565b600082101515156102d557600080fd5b60058054600181600116156101000203166002900480601f01602080910402602001604051908101604052809291908181526020018280546001816001161561010002031660029004801561036b5780601f106103405761010080835404028352916020019161036b565b820191906000526020600020905b81548152906001019060200180831161034e57829003601f168201915b50505050509050919050565b61037f6104ed565b73ffffffffffffffffffffffffffffffffffffffff163373ffffffffffffffffffffffffffffffffffffffff161415156103b857600080fd5b80600590805190602001906103ce92919061120f565b505050565b505050565b61044c6040805190810160405280600c81526020017f576f6c6672616d416c70686100000000000000000000000000000000000000008152506040805190810160405280601881526020017f74656d706572617475726520696e20726f636865737465720000000000000000815250610803565b50565b60058054600181600116156101000203166002900480601f0160208091040260200160405190810160405280929190818152602001828054600181600116156101000203166002900480156104e55780601f106104ba576101008083540402835291602001916104e5565b820191906000526020600020905b8154815290600101906020018083116104c857829003601f168201915b505050505081565b6000806000809054906101000a900473ffffffffffffffffffffffffffffffffffffffff1673ffffffffffffffffffffffffffffffffffffffff16148061055d5750600061055b6000809054906101000a900473ffffffffffffffffffffffffffffffffffffffff16610d45565b145b1561056e5761056c6000610d50565b505b6000809054906101000a900473ffffffffffffffffffffffffffffffffffffffff1673ffffffffffffffffffffffffffffffffffffffff166338cc48316000604051602001526040518163ffffffff167c0100000000000000000000000000000000000000000000000000000000028152600401602060405180830381600087803b15156105fb57600080fd5b6102c65a03f1151561060c57600080fd5b5050506040518051905073ffffffffffffffffffffffffffffffffffffffff16600160009054906101000a900473ffffffffffffffffffffffffffffffffffffffff1673ffffffffffffffffffffffffffffffffffffffff16141515610755576000809054906101000a900473ffffffffffffffffffffffffffffffffffffffff1673ffffffffffffffffffffffffffffffffffffffff166338cc48316000604051602001526040518163ffffffff167c0100000000000000000000000000000000000000000000000000000000028152600401602060405180830381600087803b15156106f957600080fd5b6102c65a03f1151561070a57600080fd5b50505060405180519050600160006101000a81548173ffffffffffffffffffffffffffffffffffffffff021916908373ffffffffffffffffffffffffffffffffffffffff1602179055505b600160009054906101000a900473ffffffffffffffffffffffffffffffffffffffff1673ffffffffffffffffffffffffffffffffffffffff1663c281d19e6000604051602001526040518163ffffffff167c0100000000000000000000000000000000000000000000000000000000028152600401602060405180830381600087803b15156107e357600080fd5b6102c65a03f115156107f457600080fd5b50505060405180519050905090565b60008060008060009054906101000a900473ffffffffffffffffffffffffffffffffffffffff1673ffffffffffffffffffffffffffffffffffffffff161480610875575060006108736000809054906101000a900473ffffffffffffffffffffffffffffffffffffffff16610d45565b145b15610886576108846000610d50565b505b6000809054906101000a900473ffffffffffffffffffffffffffffffffffffffff1673ffffffffffffffffffffffffffffffffffffffff166338cc48316000604051602001526040518163ffffffff167c0100000000000000000000000000000000000000000000000000000000028152600401602060405180830381600087803b151561091357600080fd5b6102c65a03f1151561092457600080fd5b5050506040518051905073ffffffffffffffffffffffffffffffffffffffff16600160009054906101000a900473ffffffffffffffffffffffffffffffffffffffff1673ffffffffffffffffffffffffffffffffffffffff16141515610a6d576000809054906101000a900473ffffffffffffffffffffffffffffffffffffffff1673ffffffffffffffffffffffffffffffffffffffff166338cc48316000604051602001526040518163ffffffff167c0100000000000000000000000000000000000000000000000000000000028152600401602060405180830381600087803b1515610a1157600080fd5b6102c65a03f11515610a2257600080fd5b50505060405180519050600160006101000a81548173ffffffffffffffffffffffffffffffffffffffff021916908373ffffffffffffffffffffffffffffffffffffffff1602179055505b600160009054906101000a900473ffffffffffffffffffffffffffffffffffffffff1673ffffffffffffffffffffffffffffffffffffffff1663524f3889856000604051602001526040518263ffffffff167c01000000000000000000000000000000000000000000000000000000000281526004018080602001828103825283818151815260200191508051906020019080838360005b83811015610b20578082015181840152602081019050610b05565b50505050905090810190601f168015610b4d5780820380516001836020036101000a031916815260200191505b5092505050602060405180830381600087803b1515610b6b57600080fd5b6102c65a03f11515610b7c57600080fd5b50505060405180519050905062030d403a02670de0b6b3a764000001811115610bab5760006001029150610d3e565b600160009054906101000a900473ffffffffffffffffffffffffffffffffffffffff1673ffffffffffffffffffffffffffffffffffffffff1663adf59f9982600087876000604051602001526040518563ffffffff167c0100000000000000000000000000000000000000000000000000000000028152600401808481526020018060200180602001838103835285818151815260200191508051906020019080838360005b83811015610c6c578082015181840152602081019050610c51565b50505050905090810190601f168015610c995780820380516001836020036101000a031916815260200191505b50838103825284818151815260200191508051906020019080838360005b83811015610cd2578082015181840152602081019050610cb7565b50505050905090810190601f168015610cff5780820380516001836020036101000a031916815260200191505b50955050505050506020604051808303818588803b1515610d1f57600080fd5b6125ee5a03f11515610d3057600080fd5b505050506040518051905091505b5092915050565b6000813b9050919050565b600080610d70731d3b2638a7cc9f2cb3d298a3da7a90b67e5506ed610d45565b1115610e1157731d3b2638a7cc9f2cb3d298a3da7a90b67e5506ed6000806101000a81548173ffffffffffffffffffffffffffffffffffffffff021916908373ffffffffffffffffffffffffffffffffffffffff160217905550610e086040805190810160405280600b81526020017f6574685f6d61696e6e65740000000000000000000000000000000000000000008152506111e1565b600190506111dc565b6000610e3073c03a2615d5efaf5f49f60b7bb6583eaec212fdf1610d45565b1115610ed15773c03a2615d5efaf5f49f60b7bb6583eaec212fdf16000806101000a81548173ffffffffffffffffffffffffffffffffffffffff021916908373ffffffffffffffffffffffffffffffffffffffff160217905550610ec86040805190810160405280600c81526020017f6574685f726f707374656e3300000000000000000000000000000000000000008152506111e1565b600190506111dc565b6000610ef073b7a07bcf2ba2f2703b24c0691b5278999c59ac7e610d45565b1115610f915773b7a07bcf2ba2f2703b24c0691b5278999c59ac7e6000806101000a81548173ffffffffffffffffffffffffffffffffffffffff021916908373ffffffffffffffffffffffffffffffffffffffff160217905550610f886040805190810160405280600981526020017f6574685f6b6f76616e00000000000000000000000000000000000000000000008152506111e1565b600190506111dc565b6000610fb073146500cfd35b22e4a392fe0adc06de1a1368ed48610d45565b11156110515773146500cfd35b22e4a392fe0adc06de1a1368ed486000806101000a81548173ffffffffffffffffffffffffffffffffffffffff021916908373ffffffffffffffffffffffffffffffffffffffff1602179055506110486040805190810160405280600b81526020017f6574685f72696e6b6562790000000000000000000000000000000000000000008152506111e1565b600190506111dc565b6000611070736f485c8bf6fc43ea212e93bbf8ce046c7f1cb475610d45565b11156110d357736f485c8bf6fc43ea212e93bbf8ce046c7f1cb4756000806101000a81548173ffffffffffffffffffffffffffffffffffffffff021916908373ffffffffffffffffffffffffffffffffffffffff160217905550600190506111dc565b60006110f27320e12a1f859b3feae5fb2a0a32c18f5a65555bbf610d45565b1115611155577320e12a1f859b3feae5fb2a0a32c18f5a65555bbf6000806101000a81548173ffffffffffffffffffffffffffffffffffffffff021916908373ffffffffffffffffffffffffffffffffffffffff160217905550600190506111dc565b60006111747351efaf4c8b3c9afbd5ab9f4bbc82784ab6ef8faa610d45565b11156111d7577351efaf4c8b3c9afbd5ab9f4bbc82784ab6ef8faa6000806101000a81548173ffffffffffffffffffffffffffffffffffffffff021916908373ffffffffffffffffffffffffffffffffffffffff160217905550600190506111dc565b600090505b919050565b80600290805190602001906111f792919061120f565b5050565b602060405190810160405280600081525090565b828054600181600116156101000203166002900490600052602060002090601f016020900481019282601f1061125057805160ff191683800117855561127e565b8280016001018555821561127e579182015b8281111561127d578251825591602001919060010190611262565b5b50905061128b919061128f565b5090565b6112b191905b808211156112ad576000816000905550600101611295565b5090565b905600a165627a7a7230582063a6092de50fdbbf22912a38c1a1feed39bc413d35c58a5c4e5ad63dfab6c7dc0029",
  "source": "pragma solidity ^0.4.0;\n//import \"github.com/oraclize/ethereum-api/oraclizeAPI.sol\";\n//if running on public chain use below import\nimport \"../ethereum-api-master/oraclizeAPI_0.4.sol\";\n\n\ncontract SmartSensor is usingOraclize {\n\nstring public reading;\n\n\tfunction SmartSensor() {\n//\tOAR = OraclizeAddrResolverI(0x6f485C8BF6fc43eA212E93BBF8ce046C7f1cb475);\n\tupdate();\n\t}\n\t\n\tfunction getData(uint sensorId) public returns (string) {\n\trequire(sensorId>=0); \n\treturn reading; //sensor id will be used for associating reading to individual sensors\n\t}\n\n\tfunction __callback(bytes32 myid, string result) {\n        if (msg.sender != oraclize_cbAddress()) throw;\n        reading = result;\n    }\n    \n    function update() payable {\n        oraclize_query(\"WolframAlpha\",\"temperature in rochester\");\n    }\n\n}",
  "sourcePath": "/Users/parth/testcontract/contracts/SmartSensor.sol",
  "compiler": {
    "name": "solc",
    "version": "0.4.18+commit.9cf6e910.Emscripten.clang"
  },
  "schemaVersion": "1.0.1",
  "updatedAt": "2017-12-11T22:25:45.326Z"
}